{
  "abi": [
    {
      "inputs": [
        {
          "internalType": "string",
          "name": "tokenURI",
          "type": "string"
        }
      ],
      "stateMutability": "nonpayable",
      "type": "constructor"
    },
    {
      "inputs": [],
      "name": "AlreadyMinted",
      "type": "error"
    },
    {
      "anonymous": false,
      "inputs": [
        {
          "indexed": true,
          "internalType": "address",
          "name": "owner",
          "type": "address"
        },
        {
          "indexed": true,
          "internalType": "address",
          "name": "approved",
          "type": "address"
        },
        {
          "indexed": true,
          "internalType": "uint256",
          "name": "tokenId",
          "type": "uint256"
        }
      ],
      "name": "Approval",
      "type": "event"
    },
    {
      "anonymous": false,
      "inputs": [
        {
          "indexed": true,
          "internalType": "address",
          "name": "owner",
          "type": "address"
        },
        {
          "indexed": true,
          "internalType": "address",
          "name": "operator",
          "type": "address"
        },
        {
          "indexed": false,
          "internalType": "bool",
          "name": "approved",
          "type": "bool"
        }
      ],
      "name": "ApprovalForAll",
      "type": "event"
    },
    {
      "anonymous": false,
      "inputs": [
        {
          "indexed": true,
          "internalType": "address",
          "name": "previousOwner",
          "type": "address"
        },
        {
          "indexed": true,
          "internalType": "address",
          "name": "newOwner",
          "type": "address"
        }
      ],
      "name": "OwnershipTransferred",
      "type": "event"
    },
    {
      "anonymous": false,
      "inputs": [
        {
          "indexed": true,
          "internalType": "address",
          "name": "_to",
          "type": "address"
        },
        {
          "indexed": true,
          "internalType": "uint256",
          "name": "_tokenId",
          "type": "uint256"
        }
      ],
      "name": "TokenMinted",
      "type": "event"
    },
    {
      "anonymous": false,
      "inputs": [
        {
          "indexed": true,
          "internalType": "address",
          "name": "from",
          "type": "address"
        },
        {
          "indexed": true,
          "internalType": "address",
          "name": "to",
          "type": "address"
        },
        {
          "indexed": true,
          "internalType": "uint256",
          "name": "tokenId",
          "type": "uint256"
        }
      ],
      "name": "Transfer",
      "type": "event"
    },
    {
      "anonymous": false,
      "inputs": [
        {
          "indexed": false,
          "internalType": "string",
          "name": "_from",
          "type": "string"
        },
        {
          "indexed": false,
          "internalType": "string",
          "name": "_to",
          "type": "string"
        }
      ],
      "name": "UpdateBaseURI",
      "type": "event"
    },
    {
      "inputs": [
        {
          "internalType": "address",
          "name": "to",
          "type": "address"
        },
        {
          "internalType": "uint256",
          "name": "tokenId",
          "type": "uint256"
        }
      ],
      "name": "approve",
      "outputs": [],
      "stateMutability": "nonpayable",
      "type": "function"
    },
    {
      "inputs": [
        {
          "internalType": "address",
          "name": "owner",
          "type": "address"
        }
      ],
      "name": "balanceOf",
      "outputs": [
        {
          "internalType": "uint256",
          "name": "",
          "type": "uint256"
        }
      ],
      "stateMutability": "view",
      "type": "function"
    },
    {
      "inputs": [],
      "name": "baseTokenURI",
      "outputs": [
        {
          "internalType": "string",
          "name": "",
          "type": "string"
        }
      ],
      "stateMutability": "view",
      "type": "function"
    },
    {
      "inputs": [
        {
          "internalType": "uint256",
          "name": "tokenId",
          "type": "uint256"
        }
      ],
      "name": "burn",
      "outputs": [],
      "stateMutability": "nonpayable",
      "type": "function"
    },
    {
      "inputs": [
        {
          "internalType": "uint256",
          "name": "tokenId",
          "type": "uint256"
        }
      ],
      "name": "getApproved",
      "outputs": [
        {
          "internalType": "address",
          "name": "",
          "type": "address"
        }
      ],
      "stateMutability": "view",
      "type": "function"
    },
    {
      "inputs": [
        {
          "internalType": "address",
          "name": "owner",
          "type": "address"
        },
        {
          "internalType": "address",
          "name": "operator",
          "type": "address"
        }
      ],
      "name": "isApprovedForAll",
      "outputs": [
        {
          "internalType": "bool",
          "name": "",
          "type": "bool"
        }
      ],
      "stateMutability": "view",
      "type": "function"
    },
    {
      "inputs": [],
      "name": "name",
      "outputs": [
        {
          "internalType": "string",
          "name": "",
          "type": "string"
        }
      ],
      "stateMutability": "view",
      "type": "function"
    },
    {
      "inputs": [],
      "name": "owner",
      "outputs": [
        {
          "internalType": "address",
          "name": "",
          "type": "address"
        }
      ],
      "stateMutability": "view",
      "type": "function"
    },
    {
      "inputs": [
        {
          "internalType": "address",
          "name": "to",
          "type": "address"
        }
      ],
      "name": "ownerMint",
      "outputs": [
        {
          "internalType": "uint256",
          "name": "newTokenId",
          "type": "uint256"
        }
      ],
      "stateMutability": "nonpayable",
      "type": "function"
    },
    {
      "inputs": [
        {
          "internalType": "uint256",
          "name": "tokenId",
          "type": "uint256"
        }
      ],
      "name": "ownerOf",
      "outputs": [
        {
          "internalType": "address",
          "name": "",
          "type": "address"
        }
      ],
      "stateMutability": "view",
      "type": "function"
    },
    {
      "inputs": [],
      "name": "renounceOwnership",
      "outputs": [],
      "stateMutability": "nonpayable",
      "type": "function"
    },
    {
      "inputs": [
        {
          "internalType": "address",
          "name": "from",
          "type": "address"
        },
        {
          "internalType": "address",
          "name": "to",
          "type": "address"
        },
        {
          "internalType": "uint256",
          "name": "tokenId",
          "type": "uint256"
        }
      ],
      "name": "safeTransferFrom",
      "outputs": [],
      "stateMutability": "nonpayable",
      "type": "function"
    },
    {
      "inputs": [
        {
          "internalType": "address",
          "name": "from",
          "type": "address"
        },
        {
          "internalType": "address",
          "name": "to",
          "type": "address"
        },
        {
          "internalType": "uint256",
          "name": "tokenId",
          "type": "uint256"
        },
        {
          "internalType": "bytes",
          "name": "data",
          "type": "bytes"
        }
      ],
      "name": "safeTransferFrom",
      "outputs": [],
      "stateMutability": "nonpayable",
      "type": "function"
    },
    {
      "inputs": [
        {
          "internalType": "address",
          "name": "operator",
          "type": "address"
        },
        {
          "internalType": "bool",
          "name": "approved",
          "type": "bool"
        }
      ],
      "name": "setApprovalForAll",
      "outputs": [],
      "stateMutability": "nonpayable",
      "type": "function"
    },
    {
      "inputs": [
        {
          "internalType": "string",
          "name": "_baseTokenURI",
          "type": "string"
        }
      ],
      "name": "setBaseTokenURI",
      "outputs": [],
      "stateMutability": "nonpayable",
      "type": "function"
    },
    {
      "inputs": [
        {
          "internalType": "bytes4",
          "name": "interfaceId",
          "type": "bytes4"
        }
      ],
      "name": "supportsInterface",
      "outputs": [
        {
          "internalType": "bool",
          "name": "",
          "type": "bool"
        }
      ],
      "stateMutability": "view",
      "type": "function"
    },
    {
      "inputs": [],
      "name": "symbol",
      "outputs": [
        {
          "internalType": "string",
          "name": "",
          "type": "string"
        }
      ],
      "stateMutability": "view",
      "type": "function"
    },
    {
      "inputs": [
        {
          "internalType": "uint256",
          "name": "tokenId",
          "type": "uint256"
        }
      ],
      "name": "tokenURI",
      "outputs": [
        {
          "internalType": "string",
          "name": "",
          "type": "string"
        }
      ],
      "stateMutability": "view",
      "type": "function"
    },
    {
      "inputs": [
        {
          "internalType": "address",
          "name": "from",
          "type": "address"
        },
        {
          "internalType": "address",
          "name": "to",
          "type": "address"
        },
        {
          "internalType": "uint256",
          "name": "tokenId",
          "type": "uint256"
        }
      ],
      "name": "transferFrom",
      "outputs": [],
      "stateMutability": "nonpayable",
      "type": "function"
    },
    {
      "inputs": [
        {
          "internalType": "address",
          "name": "newOwner",
          "type": "address"
        }
      ],
      "name": "transferOwnership",
      "outputs": [],
      "stateMutability": "nonpayable",
      "type": "function"
    }
  ],
  "bytecode": {
    "object": "0x60806040523480156200001157600080fd5b5060405162001dee38038062001dee833981016040819052620000349162000132565b6040518060400160405280600a81526020016948657861417263616e6160b01b815250604051806040016040528060038152602001620908ab60eb1b815250816000908162000084919062000296565b50600162000093828262000296565b505050620000b0620000aa620000c660201b60201c565b620000ca565b6008620000be828262000296565b505062000362565b3390565b600680546001600160a01b038381166001600160a01b0319831681179093556040519116919082907f8be0079c531659141344cd1fd0a4f28419497f9722a3daafe3b4186f6b6457e090600090a35050565b634e487b7160e01b600052604160045260246000fd5b600060208083850312156200014657600080fd5b82516001600160401b03808211156200015e57600080fd5b818501915085601f8301126200017357600080fd5b8151818111156200018857620001886200011c565b604051601f8201601f19908116603f01168101908382118183101715620001b357620001b36200011c565b816040528281528886848701011115620001cc57600080fd5b600093505b82841015620001f05784840186015181850187015292850192620001d1565b600086848301015280965050505050505092915050565b600181811c908216806200021c57607f821691505b6020821081036200023d57634e487b7160e01b600052602260045260246000fd5b50919050565b601f8211156200029157600081815260208120601f850160051c810160208610156200026c5750805b601f850160051c820191505b818110156200028d5782815560010162000278565b5050505b505050565b81516001600160401b03811115620002b257620002b26200011c565b620002ca81620002c3845462000207565b8462000243565b602080601f831160018114620003025760008415620002e95750858301515b600019600386901b1c1916600185901b1785556200028d565b600085815260208120601f198616915b82811015620003335788860151825594840194600190910190840162000312565b5085821015620003525787850151600019600388901b60f8161c191681555b5050505050600190811b01905550565b611a7c80620003726000396000f3fe608060405234801561001057600080fd5b506004361061012c5760003560e01c806370a08231116100ad578063b88d4fde11610071578063b88d4fde14610275578063c87b56dd14610288578063d547cfb71461029b578063e985e9c5146102a3578063f2fde38b146102df57600080fd5b806370a082311461022e578063715018a6146102415780638da5cb5b1461024957806395d89b411461025a578063a22cb4651461026257600080fd5b806323b872dd116100f457806323b872dd146101cf57806330176e13146101e257806342842e0e146101f557806342966c68146102085780636352211e1461021b57600080fd5b806301ffc9a71461013157806306fdde0314610159578063081812fc1461016e578063095ea7b3146101995780631e3bcc8e146101ae575b600080fd5b61014461013f3660046113e8565b6102f2565b60405190151581526020015b60405180910390f35b610161610303565b6040516101509190611455565b61018161017c366004611468565b610395565b6040516001600160a01b039091168152602001610150565b6101ac6101a7366004611498565b6103bc565b005b6101c16101bc3660046114c2565b6104d6565b604051908152602001610150565b6101ac6101dd3660046114dd565b6105d0565b6101ac6101f03660046115a5565b610601565b6101ac6102033660046114dd565b610653565b6101ac610216366004611468565b61066e565b610181610229366004611468565b6106eb565b6101c161023c3660046114c2565b61074b565b6101ac6107d1565b6006546001600160a01b0316610181565b6101616107e5565b6101ac6102703660046115ee565b6107f4565b6101ac61028336600461162a565b6107ff565b610161610296366004611468565b610837565b61016161089e565b6101446102b13660046116a6565b6001600160a01b03918216600090815260056020908152604080832093909416825291909152205460ff1690565b6101ac6102ed3660046114c2565b61092c565b60006102fd826109a2565b92915050565b606060008054610312906116d9565b80601f016020809104026020016040519081016040528092919081815260200182805461033e906116d9565b801561038b5780601f106103605761010080835404028352916020019161038b565b820191906000526020600020905b81548152906001019060200180831161036e57829003601f168201915b5050505050905090565b60006103a0826109f2565b506000908152600460205260409020546001600160a01b031690565b60006103c7826106eb565b9050806001600160a01b0316836001600160a01b0316036104395760405162461bcd60e51b815260206004820152602160248201527f4552433732313a20617070726f76616c20746f2063757272656e74206f776e656044820152603960f91b60648201526084015b60405180910390fd5b336001600160a01b0382161480610455575061045581336102b1565b6104c75760405162461bcd60e51b815260206004820152603d60248201527f4552433732313a20617070726f76652063616c6c6572206973206e6f7420746f60448201527f6b656e206f776e6572206f7220617070726f76656420666f7220616c6c0000006064820152608401610430565b6104d18383610a51565b505050565b60006104e0610abf565b6040516370a0823160e01b81526001600160a01b038316600482015260009030906370a0823190602401602060405180830381865afa158015610527573d6000803e3d6000fd5b505050506040513d601f19601f8201168201806040525081019061054b9190611713565b9050801561056c57604051631bbdf5c560e31b815260040160405180910390fd5b600061057760075490565b9050610587600780546001019055565b6105918482610b19565b60405181906001600160a01b038616907fb9144c96c86541f6fa89c9f2f02495cccf4b08cd6643e26d34ee00aa586558a890600090a39150505b919050565b6105da3382610b33565b6105f65760405162461bcd60e51b81526004016104309061172c565b6104d1838383610bb2565b610609610abf565b7f8df4f488121a100577506716b83a42d04585c6b7b93941484c5b63b503e1806d60088260405161063b929190611779565b60405180910390a1600861064f8282611866565b5050565b6104d1838383604051806020016040528060008152506107ff565b33610678826106eb565b6001600160a01b0316146106df5760405162461bcd60e51b815260206004820152602860248201527f4f6e6c7920746865206f776e6572206f662074686520746f6b656e2063616e20604482015267313ab9371034ba1760c11b6064820152608401610430565b6106e881610d23565b50565b6000818152600260205260408120546001600160a01b0316806102fd5760405162461bcd60e51b8152602060048201526018602482015277115490cdcc8c4e881a5b9d985b1a59081d1bdad95b88125160421b6044820152606401610430565b60006001600160a01b0382166107b55760405162461bcd60e51b815260206004820152602960248201527f4552433732313a2061646472657373207a65726f206973206e6f7420612076616044820152683634b21037bbb732b960b91b6064820152608401610430565b506001600160a01b031660009081526003602052604090205490565b6107d9610abf565b6107e36000610d2c565b565b606060018054610312906116d9565b61064f338383610d7e565b6108093383610b33565b6108255760405162461bcd60e51b81526004016104309061172c565b61083184848484610e4c565b50505050565b6060610842826109f2565b600061084c610e7f565b9050600081511161086c5760405180602001604052806000815250610897565b8061087684610e8e565b604051602001610887929190611926565b6040516020818303038152906040525b9392505050565b600880546108ab906116d9565b80601f01602080910402602001604051908101604052809291908181526020018280546108d7906116d9565b80156109245780601f106108f957610100808354040283529160200191610924565b820191906000526020600020905b81548152906001019060200180831161090757829003601f168201915b505050505081565b610934610abf565b6001600160a01b0381166109995760405162461bcd60e51b815260206004820152602660248201527f4f776e61626c653a206e6577206f776e657220697320746865207a65726f206160448201526564647265737360d01b6064820152608401610430565b6106e881610d2c565b60006001600160e01b031982166380ac58cd60e01b14806109d357506001600160e01b03198216635b5e139f60e01b145b806102fd57506301ffc9a760e01b6001600160e01b03198316146102fd565b6000818152600260205260409020546001600160a01b03166106e85760405162461bcd60e51b8152602060048201526018602482015277115490cdcc8c4e881a5b9d985b1a59081d1bdad95b88125160421b6044820152606401610430565b600081815260046020526040902080546001600160a01b0319166001600160a01b0384169081179091558190610a86826106eb565b6001600160a01b03167f8c5be1e5ebec7d5bd14f71427d1e84f3dd0314c0f7b2291e5b200ac8c7c3b92560405160405180910390a45050565b6006546001600160a01b031633146107e35760405162461bcd60e51b815260206004820181905260248201527f4f776e61626c653a2063616c6c6572206973206e6f7420746865206f776e65726044820152606401610430565b61064f828260405180602001604052806000815250610f21565b600080610b3f836106eb565b9050806001600160a01b0316846001600160a01b03161480610b8657506001600160a01b0380821660009081526005602090815260408083209388168352929052205460ff165b80610baa5750836001600160a01b0316610b9f84610395565b6001600160a01b0316145b949350505050565b826001600160a01b0316610bc5826106eb565b6001600160a01b031614610beb5760405162461bcd60e51b815260040161043090611955565b6001600160a01b038216610c4d5760405162461bcd60e51b8152602060048201526024808201527f4552433732313a207472616e7366657220746f20746865207a65726f206164646044820152637265737360e01b6064820152608401610430565b610c5a8383836001610f54565b826001600160a01b0316610c6d826106eb565b6001600160a01b031614610c935760405162461bcd60e51b815260040161043090611955565b600081815260046020908152604080832080546001600160a01b03199081169091556001600160a01b0387811680865260038552838620805460001901905590871680865283862080546001019055868652600290945282852080549092168417909155905184937fddf252ad1be2c89b69c2b068fc378daa952ba7f163c4a11628f55a4df523b3ef91a4505050565b6106e881610fbd565b600680546001600160a01b038381166001600160a01b0319831681179093556040519116919082907f8be0079c531659141344cd1fd0a4f28419497f9722a3daafe3b4186f6b6457e090600090a35050565b816001600160a01b0316836001600160a01b031603610ddf5760405162461bcd60e51b815260206004820152601960248201527f4552433732313a20617070726f766520746f2063616c6c6572000000000000006044820152606401610430565b6001600160a01b03838116600081815260056020908152604080832094871680845294825291829020805460ff191686151590811790915591519182527f17307eab39ab6107e8899845ad3d59bd9653f200f220920489ca2b5937696c31910160405180910390a3505050565b610e57848484610bb2565b610e6384848484611060565b6108315760405162461bcd60e51b81526004016104309061199a565b606060088054610312906116d9565b60606000610e9b83611161565b600101905060008167ffffffffffffffff811115610ebb57610ebb611519565b6040519080825280601f01601f191660200182016040528015610ee5576020820181803683370190505b5090508181016020015b600019016f181899199a1a9b1b9c1cb0b131b232b360811b600a86061a8153600a8504945084610eef57509392505050565b610f2b8383611239565b610f386000848484611060565b6104d15760405162461bcd60e51b81526004016104309061199a565b6001600160a01b0384161580610f7157506001600160a01b038316155b6108315760405162461bcd60e51b815260206004820152601960248201527f5342542063616e6e6f74206265207472616e73666572726564000000000000006044820152606401610430565b6000610fc8826106eb565b9050610fd8816000846001610f54565b610fe1826106eb565b600083815260046020908152604080832080546001600160a01b03199081169091556001600160a01b0385168085526003845282852080546000190190558785526002909352818420805490911690555192935084927fddf252ad1be2c89b69c2b068fc378daa952ba7f163c4a11628f55a4df523b3ef908390a45050565b60006001600160a01b0384163b1561115657604051630a85bd0160e11b81526001600160a01b0385169063150b7a02906110a49033908990889088906004016119ec565b6020604051808303816000875af19250505080156110df575060408051601f3d908101601f191682019092526110dc91810190611a29565b60015b61113c573d80801561110d576040519150601f19603f3d011682016040523d82523d6000602084013e611112565b606091505b5080516000036111345760405162461bcd60e51b81526004016104309061199a565b805181602001fd5b6001600160e01b031916630a85bd0160e11b149050610baa565b506001949350505050565b60008072184f03e93ff9f4daa797ed6e38ed64bf6a1f0160401b83106111a05772184f03e93ff9f4daa797ed6e38ed64bf6a1f0160401b830492506040015b6d04ee2d6d415b85acef810000000083106111cc576d04ee2d6d415b85acef8100000000830492506020015b662386f26fc1000083106111ea57662386f26fc10000830492506010015b6305f5e1008310611202576305f5e100830492506008015b612710831061121657612710830492506004015b60648310611228576064830492506002015b600a83106102fd5760010192915050565b6001600160a01b03821661128f5760405162461bcd60e51b815260206004820181905260248201527f4552433732313a206d696e7420746f20746865207a65726f20616464726573736044820152606401610430565b6000818152600260205260409020546001600160a01b0316156112f45760405162461bcd60e51b815260206004820152601c60248201527f4552433732313a20746f6b656e20616c7265616479206d696e746564000000006044820152606401610430565b611302600083836001610f54565b6000818152600260205260409020546001600160a01b0316156113675760405162461bcd60e51b815260206004820152601c60248201527f4552433732313a20746f6b656e20616c7265616479206d696e746564000000006044820152606401610430565b6001600160a01b038216600081815260036020908152604080832080546001019055848352600290915280822080546001600160a01b0319168417905551839291907fddf252ad1be2c89b69c2b068fc378daa952ba7f163c4a11628f55a4df523b3ef908290a45050565b6001600160e01b0319811681146106e857600080fd5b6000602082840312156113fa57600080fd5b8135610897816113d2565b60005b83811015611420578181015183820152602001611408565b50506000910152565b60008151808452611441816020860160208601611405565b601f01601f19169290920160200192915050565b6020815260006108976020830184611429565b60006020828403121561147a57600080fd5b5035919050565b80356001600160a01b03811681146105cb57600080fd5b600080604083850312156114ab57600080fd5b6114b483611481565b946020939093013593505050565b6000602082840312156114d457600080fd5b61089782611481565b6000806000606084860312156114f257600080fd5b6114fb84611481565b925061150960208501611481565b9150604084013590509250925092565b634e487b7160e01b600052604160045260246000fd5b600067ffffffffffffffff8084111561154a5761154a611519565b604051601f8501601f19908116603f0116810190828211818310171561157257611572611519565b8160405280935085815286868601111561158b57600080fd5b858560208301376000602087830101525050509392505050565b6000602082840312156115b757600080fd5b813567ffffffffffffffff8111156115ce57600080fd5b8201601f810184136115df57600080fd5b610baa8482356020840161152f565b6000806040838503121561160157600080fd5b61160a83611481565b91506020830135801515811461161f57600080fd5b809150509250929050565b6000806000806080858703121561164057600080fd5b61164985611481565b935061165760208601611481565b925060408501359150606085013567ffffffffffffffff81111561167a57600080fd5b8501601f8101871361168b57600080fd5b61169a8782356020840161152f565b91505092959194509250565b600080604083850312156116b957600080fd5b6116c283611481565b91506116d060208401611481565b90509250929050565b600181811c908216806116ed57607f821691505b60208210810361170d57634e487b7160e01b600052602260045260246000fd5b50919050565b60006020828403121561172557600080fd5b5051919050565b6020808252602d908201527f4552433732313a2063616c6c6572206973206e6f7420746f6b656e206f776e6560408201526c1c881bdc88185c1c1c9bdd9959609a1b606082015260800190565b60408152600080845461178b816116d9565b80604086015260606001808416600081146117ad57600181146117c7576117f8565b60ff1985168884015283151560051b8801830195506117f8565b8960005260208060002060005b868110156117ef5781548b82018701529084019082016117d4565b8a018501975050505b5050505050828103602084015261180f8185611429565b95945050505050565b601f8211156104d157600081815260208120601f850160051c8101602086101561183f5750805b601f850160051c820191505b8181101561185e5782815560010161184b565b505050505050565b815167ffffffffffffffff81111561188057611880611519565b6118948161188e84546116d9565b84611818565b602080601f8311600181146118c957600084156118b15750858301515b600019600386901b1c1916600185901b17855561185e565b600085815260208120601f198616915b828110156118f8578886015182559484019460019091019084016118d9565b50858210156119165787850151600019600388901b60f8161c191681555b5050505050600190811b01905550565b60008351611938818460208801611405565b83519083019061194c818360208801611405565b01949350505050565b60208082526025908201527f4552433732313a207472616e736665722066726f6d20696e636f72726563742060408201526437bbb732b960d91b606082015260800190565b60208082526032908201527f4552433732313a207472616e7366657220746f206e6f6e20455243373231526560408201527131b2b4bb32b91034b6b83632b6b2b73a32b960711b606082015260800190565b6001600160a01b0385811682528416602082015260408101839052608060608201819052600090611a1f90830184611429565b9695505050505050565b600060208284031215611a3b57600080fd5b8151610897816113d256fea2646970667358221220cbea40cda920579475278e49f13f4171076a8dd864250b603a2a2ef49cd7da1564736f6c63430008110033",
    "linkReferences": {}
  },
  "methodIdentifiers": {
    "approve(address,uint256)": "095ea7b3",
    "balanceOf(address)": "70a08231",
    "baseTokenURI()": "d547cfb7",
    "burn(uint256)": "42966c68",
    "getApproved(uint256)": "081812fc",
    "isApprovedForAll(address,address)": "e985e9c5",
    "name()": "06fdde03",
    "owner()": "8da5cb5b",
    "ownerMint(address)": "1e3bcc8e",
    "ownerOf(uint256)": "6352211e",
    "renounceOwnership()": "715018a6",
    "safeTransferFrom(address,address,uint256)": "42842e0e",
    "safeTransferFrom(address,address,uint256,bytes)": "b88d4fde",
    "setApprovalForAll(address,bool)": "a22cb465",
    "setBaseTokenURI(string)": "30176e13",
    "supportsInterface(bytes4)": "01ffc9a7",
    "symbol()": "95d89b41",
    "tokenURI(uint256)": "c87b56dd",
    "transferFrom(address,address,uint256)": "23b872dd",
    "transferOwnership(address)": "f2fde38b"
  },
  "id": 32
}